:10000000C03B0020B1080000AD080000AD080000B2
:1000100000000000000000000000000000000000E0
:10002000000000000000000000000000AD0800001B
:100030000000000000000000AD080000AD08000056
:10004000AD080000AD080000AD080000AD080000DC
:10005000AD080000AD080000AD080000AD080000CC
:10006000AD080000AD080000AD080000AD080000BC
:10007000AD080000AD080000AD080000AD080000AC
:10008000AD080000AD080000AD080000AD0800009C
:10009000AD080000AD080000AD080000AD0800008C
:1000A000AD080000AD080000AD080000AD0800007C
:1000B00010B5064C2378002B07D1054B002B02D03E
:1000C000044800E000BF0123237010BD6800002039
:1000D00000000000001D000008B5084B002B03D0F5
:1000E0000748084900E000BF07480368002B03D019
:1000F000064B002B00D0984708BDC046000000000A
:10010000001D00006C000020001D00000000000029
:1001100030B52D4B1E215A680F208A4302210A4315
:100120002A495A600A6A2A4B13400B62294B5A68C3
:1001300082435A605A78274852B2002AFADB446850
:1001400083225202224342605A7852B2002AFBDBD9
:10015000214A1068800E3F2800D11F201F4A204CE2
:1001600012689205920DA24200D11E4A80021043ED
:100170008A8C8024A2438A84CC68144AE506FBD585
:100180001949D16291214900906291845A883F2196
:100190008A435A8059888022D2010A435A805A6879
:1001A0000F218A4301210A435A605A78094952B201
:1001B000002AFADB48680D4A02434A605A7852B274
:1001C000002AFBDB30BDC046004000410008004073
:1001D000FFFCFFFF000C00402460800028608000CE
:1001E000FF030000FF01000080BB000000070100CA
:1001F00013B580233D49DB058B604B613C4B0022EE
:100200001878012318403B4B0AD11C683A4A9442A3
:1002100001D1186026E01A60384A013A002AFCD160
:100220001A60374B1A68531C1CD036480423062426
:100230004B6004708B61096A6B464907C90FD9711D
:1002400007331B78002B0DD0284B8021C9059961FD
:100250008023A3401B6883F308882B4B80218901EE
:1002600099601047FFF754FF284B01221A70BFF323
:100270005F8F62B600F04EFB01F0AAF9041C00F09B
:1002800073FD14210F2000F0D5FD214800F02CFE55
:100290001E21032000F0CEFD1E4800F025FE00F0D8
:1002A000D3FD00F01DFDAF2000F042FD00F038FD51
:1002B000A368201C9847184B002801D001221A700F
:1002C0001A78002A05D0002000F028F800F0BCFAC7
:1002D000FCE71B78002BEBD100F098FB0028E7D05F
:1002E000012000F01BF800F0AFFAFCE78044004169
:1002F00038040040FC7F00203581730748E8010086
:1003000004200000C244004100ED00E06400002031
:10031000F61700000218000084000020012805D113
:10032000054B064A1A60064B187004E0002802D1FB
:10033000044A014B1A607047A001002034180000E5
:100340008D0000208018000030B51A4B85B01B7856
:10035000002B29D0042901D1026804E0022901D12F
:10036000028800E00278490004A843180B3B5C1A9D
:10037000A3420BD00F201040092802D83025284373
:1003800000E0373018701209013BF1E701A8302373
:100390000370782343700A2243189A700D22DA7092
:1003A000054B04311B6801E0034B1B68DB68984771
:1003B00005B030BD8C000020A001002072B6BFF354
:1003C0005F8F064B00221A70EFF30883044A136014
:1003D000036883F308884368184770476400002067
:1003E000A401002007B507230F220240111C0009B9
:1003F0003031092A00DD07316A469954013BF3D2B6
:10040000034B68461B680821DB68984707BDC04658
:10041000A0010020F0B5CD4CCD4D236840211B69D3
:1004200087B0281C9847CB49CB4ACC4B08600020AA
:1004300015601860C94EC749326809688A4200D3FE
:10044000F5E1C54F38680278FF2A00D1E6E1232A9A
:1004500000D0BDE1C24D2B78002B04D02368C148E9
:10046000DB6802219847C04B1B78532B3DD1B9491B
:100470003268086890421ED9B74B01321B6832605F
:10048000191CB54B01311960B84B821A1B689A428E
:1004900000D91A1CB64BB74D18682A6001F09AF9BA
:1004A000AE4E2B68366838689A19AC4E3260C21866
:1004B0003A60B14A1370A949A74F0968A74E0B1CAF
:1004C0003F68013B33603B1CA34E013B3360A74AAE
:1004D000A94B11681B788B4205D22268A448C91A1F
:1004E000006892699047C04620E1522B06D1A04A8D
:1004F000236810689D4A5B69116816E14F2B05D18E
:100500009B4B9A4A1B6812681A700FE1482B05D161
:10051000974B964A1B6812681A8007E1572B05D142
:10052000934B924A1B6812681A60FFE06F2B03D14D
:100530008F4B0121186807E0682B08D18C4B8B4842
:100540001B6802211B880360FFF7FEFEEEE0772B9D
:1005500006D1874B85481B6804211B680360F3E7BD
:10056000472B17D1814B1868FFF728FF834B1B6877
:1005700083F30888824B01221A70BFF35F8F62B643
:10058000804B1B78002B00D1D0E0236806201B682D
:100590009847CBE0542B02D101232B7056E04E2B11
:1005A0000AD12B78002B04D123686E48DB68022126
:1005B000984700232B70B9E0562B4CD123680121BA
:1005C000DB687148984723680321DB686F489847C8
:1005D0006F4D2368281CDB680121984723680D2193
:1005E000DB686C4898472368281CDB680121984722
:1005F000594E5A4D6848002330602B60321C291C2C
:1006000013685F1C17601F78002F03D00B6801333D
:100610000B60F5E723682968DB68984723685C4826
:10062000DB68012198475D482F6030604A4A1368B3
:10063000591C11601B78002B04D0484B1A680132FA
:100640001A60F3E723682968DB6898472368454800
:10065000DB68022169E0454A582B15D11368504ADE
:100660001068504A1568AD00834209D24E4A5908B5
:10067000D1614E491180117DCF07FCD55B19F3E79D
:1006800023684B48DB684FE0592B32D11268384B56
:100690004849002A02D11B680B6026E008684249DD
:1006A0001D684B688026B34392084B60002A1CD01B
:1006B000414B0B800B7DDE07FCD50023394E36689D
:1006C000B608B34202D33D4E0E8006E09342FAD004
:1006D0009E0087590133AF51F0E70E7DF707FCD537
:1006E0009E00AD198019D21AE0E723683448DB6810
:1006F0001AE05A2B1AD11E4B17681D680026EF19F5
:10070000BD4206D02878311C00F0A2F90135061C44
:10071000F6E723680121DB682A489847301CFFF779
:1007200061FE23682848DB68032198470E4B7A2234
:100730001A700E4B00221A60094B1B7893426DD041
:1007400023680121DB682148984767E0A001002069
:100750005C010020400100204401002054010020E1
:100760008C0000207418000048010020A80100201F
:100770009C010020AC0100203C010020A4010020CD
:10078000640000208D00002050180000791800003F
:10079000521800009C180000541800006018000057
:1007A0004C010020580100200040004102A5FFFF3D
:1007B000691800008800002044A5FFFF04A5FFFF82
:1007C0006D18000071180000731800007718000001
:1007D000111C3039C8B2174B092804D81868020117
:1007E000114319601AE0111C4139052903D81E680C
:1007F000373A310106E0111C6139052904D81F6818
:10080000573A39010A4308E02C2A03D10A4A1868EA
:10081000106001E009490A7000221A60084B1A684A
:1008200001321A60074B1A6801321A6002E607B0FB
:10083000F0BDC046A80100209C0100204801002016
:10084000540100204401002030B5114A89B06B46A4
:1008500031CA31C331CA31C311CA11C30D4A694605
:1008600093685B035B0F9B005B580B490B609268BE
:100870000A4992B253430A60094900220B60094BAE
:100880001A60094B7A221A70FFF7C4FDFCE7C046D4
:1008900014180000004000415801002050010020C1
:1008A0004C0100209C01002048010020FEE70000D0
:1008B0001148124910B5884201D0002301E0104BC5
:1008C00007E0104CCA18A242F9D2C458043314608D
:1008D000F7E70D4A191D043B934203D200221A6028
:1008E0000B1CF6E7094A0A4BFF218A439A6000F085
:1008F0004BFFFFF77DFCFEE7001D0000000000201D
:100900006C00002068000020BC1B002000000000DC
:1009100000ED00E038B5234A0124131C4A3319784E
:10092000153B2143597518780F21884318701878A2
:100930000225284318704B3210781B4D204310704D
:100940001A78281C114019701A7820210A431A704D
:1009500000F0B6FE154B811C1A6A8C4014431C62D1
:10096000134B3F225888123111409043084358805E
:1009700059888022D2010A435A80C422281C0D497A
:10098000920300F0B5FE0C4B00241C700B4B1C7046
:100990000B4B1C700B4B1C700B4B1C700B4B1C70CF
:1009A00038BDC04600440041000800420004004039
:1009B000000C004004C50000B001002037020020F8
:1009C000B1010020B40100203802002035020020CF
:1009D00008B5C1B2024800F0B9FE012008BDC0460A
:1009E00000080042024B187E4007C00F7047C04607
:1009F0000008004208B5FFF7F5FF0028FBD00248C9
:100A000000F0AAFE08BDC0460008004208B5FFF786
:100A1000E9FF0023984205D0FFF7ECFF031C233BBE
:100A20005A425341181C08BD70B5041C0D1C4618D1
:100A3000B44204D02078FFF7CBFF0134F8E7281C3C
:100A400070BD10B5041CFFF7D5FF2070012010BD4C
:100A50000B0A5840034B4000C05A0902484080B27C
:100A60007047C046AA180000F7B50024051C0F1CEB
:100A7000261CBC4220D0FFF7BDFF114BC0B21B7833
:100A80000190002B1AD1311CFFF7E2FF0D4B061C21
:100A90001A88002A04D10C4A11782A1C002907D090
:100AA00001996A1C2970802F02D119880139198097
:100AB0000134A4B2151CDCE7301C00E00120FEBDAF
:100AC00035020020B201002036020020F0B585B0CA
:100AD00003AC051C0191201C0221FFF7C5FF281C57
:100AE0008021FFF7C1FF134D061C2B78002B18D176
:100AF000FFF780FF0702FFF77DFFBFB22B783F189B
:100B0000BFB2012B0DD0B74208D12378019A93428E
:100B100004D1DB436278DBB29A4204D01820FFF79D
:100B200057FF002003E00620FFF752FF012005B029
:100B3000F0BDC04635020020F0B53E4E85B0002223
:100B400003900C1C32703C4B914201D1012201E018
:100B50003A490C801A707F231C4201D080349C4398
:100B6000FFF748FF3378C0B2002B07D0002535705F
:100B7000FFF740FF3378C0B2AB4236D1432803D0F1
:100B8000712853D01528EBD1012300930120FFF7E2
:100B90001FFF0098FFF71CFF00998025C843C0B2D3
:100BA000FFF716FF039B00270293244A1388002BAC
:100BB0001DD1214901930978002918D10198FFF727
:100BC00007FF391C0198FFF743FF013D071C002D6B
:100BD000EBD1000AC0B2FFF7FBFEF8B2FFF7F8FE58
:100BE000FFF708FF3378002B0AD035701FE0029919
:100BF000013B09781380029B019101330293DDE7E9
:100C0000C0B2062807D1009B03990133DBB28031C3
:100C10000093803C0391002CB8D10420FFF7D8FE4C
:100C2000FFF7E8FE044B01251C7000E00025281C9E
:100C300005B0F0BD3502002036020020B2010020D0
:100C4000F8B5234D0023071C2B70994201D10123D5
:100C500001E0204A1180204A642413704320FFF7EA
:100C6000B7FE1E4EFFF7BEFE002803D1002E03D0B4
:100C7000013EF7E7002E03D1013C002CEED125E028
:100C80000126FFF7B7FE2C78002C01D000240FE0DE
:100C9000C0B2012805D0042814D10620FFF798FE21
:100CA00010E0381C311CFFF711FF2B78002B01D00E
:100CB0002C700BE0012803D10136F6B28037E0E753
:100CC0000028DED1044A002313700124201CF8BD43
:100CD00035020020B20100203602002000350C0051
:100CE000054B80221B6852015A61044B80221B680D
:100CF00092015A617047C04614000020080000208D
:100D0000054B80221B6852019A61044B80221B68AC
:100D100092015A617047C04614000020080000206C
:100D2000024B80221B6892019A61704708000020E4
:100D30000B4B70B519680B4B80221C68082380256B
:100D40002D014D612E1C8025ED00104201D0A561C2
:100D500000E06561013B8E615208002BEFD170BD50
:100D60000400002010000020284BF0B51F688023ED
:100D70001B01BB609C46264B80201E68254BC00093
:100D80001D6880235B05B060AB60234B80201C682E
:100D9000224B4001196880239B01A0608B60204B8F
:100DA00080221B68120560469A60B8618020C000EE
:100DB000706180204005A86180204001A0618020F2
:100DC0008001886117499A618DB05A610139002903
:100DD000FCD1154C9A61013C002CFCD101AD1349AA
:100DE0002A22281C00F0F6FCFFF77AFF285D013468
:100DF000FFF79EFF2A2CF9D1FFF792FFC0220021B6
:100E000052010B4800F0EFFC0DB0F0BD04000020D3
:100E1000100000200C00002014000020080000201A
:100E200000000020E2040000C4090000AA1A00002B
:100E3000B9020020024B1860024B19607047C0468F
:100E4000900000209400002010B5FFF759FF002407
:100E5000054B185DFFF76CFF0134C0235B019C421A
:100E6000F6D1FFF75DFF10BDB9020020F7B51F28CE
:100E700030D92038C0B2052343430193164B17489D
:100E80001F6860235F4302680021019C144B1B19FB
:100E90005B5CD4199C46134BE4180023012566467D
:100EA0009D40354060265E43002D00D0FF25013374
:100EB000A555082BF2D1531C00225F2B00DC1A1C15
:100EC00001310529E1D101325F2A01DC026001E034
:100ED00000230360F7BDC04694000020900000206E
:100EE000D41A0000B902002010B5041C2078002894
:100EF00003D0FFF7BBFF0134F8E710BDF8B51E4E75
:100F0000151C33780468002B12D11C4B1C4A1A6440
:100F10005A6C920B92035A64586C1A4A02405A64F3
:100F2000A2235B00E25C40200243E25401233370C1
:100F30004827FF37E25D012313401AD00F4B5A6C4C
:100F40009204920CAA4202D25D6CAD04AD0C081C56
:100F50002A1C0B4900F03EFCE25D03231A400121EC
:100F60000A43E15D99430B1C1343E355002333709F
:100F700000E01D1C281CF8BDB0000020B4000020BB
:100F8000FC1A0020FF3F00F0F7B5141C0068234A4C
:100F90005E011D1C019093195869271C4000400FE9
:100FA00003301033C74006D00F1C80225968120648
:100FB0000A435A6009E02F1C7B1E9F41184BBF015A
:100FC000FF18381C221C00F005FC144AA1049619D5
:100FD00037617269890C920B92030A4372617169DD
:100FE000104A08350A407261019F6B01FB18D979DC
:100FF0000322114002200143D8799043021C0A4386
:10100000DA715979802252420A435A71019F6B0169
:10101000FB18DB799A07F9D5201CFEBDB40000202F
:101020003C1B0020FF3F00F038B5384B2021DA6927
:101030000F200A43DA61364B0122197811431970E7
:10104000344B1978814319701C7806210C431C70AD
:10105000314C2578154325701C782040187018787D
:101060006024204318702D4B3F245888A04301432F
:10107000598058888221C90101435980284B197829
:101080000A431A709A78D107FCD426480268510B9B
:101090001F221140914200D1052111408C011D8D6C
:1010A00021492940214319850468A10C0A401F2ABF
:1010B00000D11D221C8D1F210A408C4322431A851A
:1010C00002680721D20D0A408A4200D103220A4059
:1010D000188D1103154A02400A431A8519787F2298
:1010E0000A401A701A78042111480A431A7058628B
:1010F0001A890C218A431A811A8901218A431A818B
:101100000021802200F06FFB38BDC0460004004083
:10111000584400413C44004159440041000C004007
:1011200000500041246080003FF8FFFFFF8FFFFF69
:10113000B4000020002303714371064B01608360FB
:10114000054B0222C360054B03610B7813430B7000
:101150007047C04699110000890F0000FD0E000085
:101160000C4BFF305A690221920B92035A61027AAA
:1011700003231A400A43017A99430B1C1343037259
:10118000827980235B4213438371037A9A07FCD5EB
:101190007047C046B4000020F7B50468051CA38B57
:1011A00008200340201CFF30002B29D0A38B0821EE
:1011B0000B43A38311228023A372427040228271C9
:1011C0004371AD4BAD4C5E68C021264089050E438E
:1011D0005E605E69344021435961A9491960A9499B
:1011E00019615C68A84921408024A4022143596008
:1011F0005968890B89035960002342712B71E1E121
:10120000017A1022114200D1DCE1017A9C4E0A439E
:1012100002729E4F32789E493A707278984F0A70E7
:10122000BA789C4E8C463280F978328809020A439B
:1012300032803A7998490A800A887979964F09026A
:101240000A433A808E4FBA79944F3A8039888C4A53
:101250000191D179019A09020A433A8040216246FC
:1012600041711178894A0902127811438C4A9446D7
:10127000894A614500D19AE11CDC80277F00B94290
:1012800000D1F1E009DC812900D198E0822900D168
:101290009AE0802900D08EE191E081235B009942A1
:1012A00000D111E100DA82E1C0239B00994200D114
:1012B000DAE080E188200001814200D17BE00CDC93
:1012C000A023DB0099426CD0D023DB0099424BD0A5
:1012D000744B994200D06EE199E0734B994200D172
:1012E00065E135DC90231B01994200D063E133882E
:1012F000201C2B71FFF734FFA02303225B00E25474
:101300005D4B5E4A586CC021104089050843586403
:101310004620FF3040262654594830264030186475
:10132000902040002654586B4027104001439220E3
:1013300059634000802121545C481863B02040006C
:101340002754586F02405A67B2235B00E15439E1D9
:10135000574B994200D11EE1564B994200D02AE1E9
:101360004C4F3B886B7122E1328880235B009A42AC
:1013700008D13B881222934201D83A8892B2281CA5
:101380004D4910E1328880239B009A4200D012E13F
:101390003B884322934201D83A8892B2281C47499D
:1013A00001E1201CFFF7DCFE328880235B421343FF
:1013B000DBB2A37206E1291D281C0122F4E040499A
:1013C000281C0B800222EFE03D490B801688502339
:1013D0001E403C4B1E7017880F263E401680168814
:1013E000032E41D81B78002B06D0138808335B01ED
:1013F000E418A3799B0605E0138808335B01E41821
:10140000A379DB06DB0F0B80281C0222CBE01188BE
:101410007F2399432B4BC9B2197010880F210140CB
:1014200011803188002900D0C5E01188002900D141
:10143000C1E01188032900D9BDE01B78002B08D03A
:101440001388302108335B01E3185A798A4320213D
:1014500007E01388302108335B01E3185A798A4387
:1014600010210A435A71A2E083793022934320224B
:1014700013438371A6E0C046B4000020FFFFFF8F36
:10148000BC1A00203C1B0020FF3F00F0B1000020F0
:10149000B200002034010020980000209A000020B3
:1014A0000103000002030000212000007C1B00203B
:1014B000A121000021220000B41C0000180000201F
:1014C000360100203801002011887F2399433E4BCC
:1014D000C9B2197010880F2101401180318800298C
:1014E00069D11188002966D01188032963D81B7837
:1014F000002B24D0138808335B01E3189979022369
:10150000880654D5118830260831490161180879B8
:10151000B043202630430871118803200831490167
:101520006118C97949090140194240D011886026E3
:10153000083149016118C879B043402623E0138877
:1015400008335B01E31899790123CE062FD5118862
:1015500030260831490161180879B043102630431C
:10156000087111880320083149016118C9794909B6
:10157000014019421BD011886026083149016118C9
:10158000C879B04320263043C8711288083252010E
:10159000A21813710BE03B880822934201D83A88C5
:1015A00092B20A49281C0023FFF7EEFC0AE0201C37
:1015B000FFF7D6FD06E0FF34A379302293432022C3
:1015C0001343A3712879FEBD380100205C00002080
:1015D00010B5054B054C2360FFF726FD201C216844
:1015E000FFF7A8FD201C10BD005000419C0000200A
:1015F00007B50122019001A90248131CFFF7C4FCA2
:1016000001200EBD9C00002013B56C460734211C40
:1016100001220248FFF772FC207816BD9C000020D2
:1016200010B5074C201CFFF7B7FD031C00208342B8
:1016300005D022684823FF33D05C0123184010BD39
:101640009C00002010B5031C0C1C221C191C034814
:101650000123FFF799FC201C10BDC0469C00002010
:1016600070B5084C061C201C0D1CFFF795FD0023CF
:10167000984205D0201C311C2A1CFFF73FFC031C9C
:10168000181C70BD9C000020F8B50C4C051C201CDB
:101690000E1CFFF781FD0023271C341C98420AD042
:1016A000002C07D0291C221C381CFFF727FC241A09
:1016B0002D18F5E7331C181CF8BDC0469C0000200F
:1016C00070B50A4986B06B4670C970C36A4670C966
:1016D00070C3002399005158884204D00133062B6F
:1016E000F8D1002000E0181C06B070BDC81C000036
:1016F00010B5C3699C07FCD403680224A3430360AC
:10170000C46901231C42FBD10468234303600368BE
:10171000DC07FCD4C46901231C42FBD1C469DC4052
:101720001C42F7D1084B1A430260C3695A07FCD424
:10173000C0239B0243608181C3699C07FCD403687A
:1017400002221343036010BD04000040037EDA0749
:10175000FCD5018570470000027E01235107FBD5AF
:10176000428B1A4207D1428BDA401A4203D1428B94
:1017700092081A4202D0034B01221A70008DC0B2A7
:101780007047C0463901002070B50E4B0E4D002445
:10179000ED1AAD101E1CAC4204D0A300F3589847BC
:1017A0000134F8E700F09CFA084B094D0024ED1ACB
:1017B000AD101E1CAC4204D0A300F358984701346E
:1017C000F8E770BDEC1C0000EC1C0000EC1C0000F5
:1017D000F01C000010B50023934203D0CC5CC4542D
:1017E0000133F9E710BD031C8218934202D019702F
:1017F0000133FAE7704754696E7953637265656E19
:101800002B00426F6F746C6F61646572204D6F6462
:10181000650000000800000010000000200000002B
:1018200040000000800000000001000000020000F5
:1018300000040000D1090000F5090000E5090000DE
:10184000290A0000430A0000390B0000410C000087
:10185000760020004E6F762031372032303136004E
:1018600031373A34383A303700580A0D00590A0DEA
:10187000005A00230A0D003E00312E310000000006
:10188000F1150000091600002116000045160000A1
:101890006116000045160000891600005B41726465
:1018A00075696E6F3A58595A5D0000002110422048
:1018B00063308440A550C660E770088129914AA131
:1018C0006BB18CC1ADD1CEE1EFF1311210027332A8
:1018D0005222B5529442F772D662399318837BB381
:1018E0005AA3BDD39CC3FFF3DEE362244334200438
:1018F0000114E664C774A44485546AA54BB52885D1
:101900000995EEE5CFF5ACC58DD553367226111687
:101910003006D776F6669556B4465BB77AA7199720
:101920003887DFF7FEE79DD7BCC7C448E55886680F
:10193000A7784008611802282338CCC9EDD98EE970
:10194000AFF9488969990AA92BB9F55AD44AB77AE7
:10195000966A711A500A333A122AFDDBDCCBBFFBC0
:101960009EEB799B588B3BBB1AABA66C877CE44CF7
:10197000C55C222C033C600C411CAEED8FFDECCD10
:10198000CDDD2AAD0BBD688D499D977EB66ED55EC7
:10199000F44E133E322E511E700E9FFFBEEFDDDF60
:1019A000FCCF1BBF3AAF599F788F8891A981CAB1EC
:1019B000EBA10CD12DC14EF16FE18010A100C2301E
:1019C000E3200450254046706760B9839893FBA3D9
:1019D000DAB33DC31CD37FE35EF3B1029012F3226E
:1019E000D2323542145277625672EAB5CBA5A89529
:1019F00089856EF54FE52CD50DC5E234C324A014BE
:101A000081046674476424540544DBA7FAB79987B8
:101A1000B8975FE77EF71DC73CD7D326F23691060D
:101A2000B01657667676154634564CD96DC90EF900
:101A30002FE9C899E9898AB9ABA94458654806785D
:101A40002768C018E1088238A3287DCB5CDB3FEB18
:101A50001EFBF98BD89BBBAB9ABB754A545A376AAD
:101A6000167AF10AD01AB32A923A2EFD0FED6CDDE8
:101A70004DCDAABD8BADE89DC98D267C076C645CFD
:101A8000454CA23C832CE01CC10C1FEF3EFF5DCFF8
:101A90007CDF9BAFBABFD98FF89F176E367E554E4D
:101AA000745E932EB23ED10EF01EAEA100A200A431
:101AB000A83FAD8EB00BB131B3F08A648B788C64E3
:101AC000BB3ABE3E81918250837DA02487051500DC
:101AD0005F75003F000000000000005F000000078D
:101AE000000700147F147F14242A7F2A122313086E
:101AF000646236495522500005030000001C224153
:101B0000000041221C00082A1C2A0808083E080878
:101B1000005030000008080808080060600000203D
:101B2000100804023E5149453E00427F4000426198
:101B30005149462141454B311814127F1027454524
:101B400045393C4A4949300171090503364949493B
:101B500036064949291E0036360000005636000078
:101B60000008142241141414141441221408000211
:101B700001510906324979413E7E1111117E7F499A
:101B80004949363E414141227F4141221C7F49491A
:101B900049417F090901013E414151327F0808084E
:101BA0007F00417F41002040413F017F08142241D6
:101BB0007F404040407F0204027F7F0408107F3E48
:101BC0004141413E7F090909063E4151215E7F099D
:101BD000192946464949493101017F01013F4040E9
:101BE000403F1F2040201F7F2018207F63140814CF
:101BF000630304780403615149454300007F414178
:101C0000020408102041417F000004020102044048
:101C100040404040000102040020545454787F4862
:101C20004444383844444420384444487F38545469
:101C30005418087E090102081454543C7F08040417
:101C40007800447D40002040443D00007F1028443F
:101C500000417F40007C041804787C080404783834
:101C6000444444387C14141408081414187C7C0868
:101C70000404084854545420043F4440203C40404D
:101C8000207C1C2040201C3C4030403C4428102834
:101C9000440C5050503C4464544C440008364100BD
:101CA00000007F0000004136080008082A1C0808D0
:101CB0001C2A08081201100102000040EB030880F2
:101CC000100100000001000000080042000C00426A
:101CD000001000420014004200180042001C0042A4
:101CE000F8B5C046F8BC08BC9E467047D900000055
:101CF000F8B5C046F8BC08BC9E467047B10000006D
:101D0000004400418044004100440041004400413F
:101D1000804400410044004109024300020100C028
:101D20000009040000010202000005240010010463
:101D30002402000524060001052401000107058393
:101D4000030800FF09040100020A000000070581E2
:101D500002400000070502024000000000C201002E
:081D6000000008000100000072
:00000001FF
